{"abi":[{"type":"constructor","inputs":[{"name":"asset_","type":"address","internalType":"contract IERC20"}],"stateMutability":"nonpayable"},{"type":"function","name":"LOCK_30_DAYS","inputs":[],"outputs":[{"name":"","type":"uint256","internalType":"uint256"}],"stateMutability":"view"},{"type":"function","name":"LOCK_60_DAYS","inputs":[],"outputs":[{"name":"","type":"uint256","internalType":"uint256"}],"stateMutability":"view"},{"type":"function","name":"LOCK_90_DAYS","inputs":[],"outputs":[{"name":"","type":"uint256","internalType":"uint256"}],"stateMutability":"view"},{"type":"function","name":"asset","inputs":[],"outputs":[{"name":"","type":"address","internalType":"contract IERC20"}],"stateMutability":"view"},{"type":"function","name":"deposit","inputs":[{"name":"amount","type":"uint256","internalType":"uint256"},{"name":"lockSeconds","type":"uint256","internalType":"uint256"}],"outputs":[{"name":"positionId","type":"uint256","internalType":"uint256"}],"stateMutability":"nonpayable"},{"type":"function","name":"getPosition","inputs":[{"name":"owner_","type":"address","internalType":"address"},{"name":"positionId","type":"uint256","internalType":"uint256"}],"outputs":[{"name":"","type":"tuple","internalType":"struct FixedVault.Position","components":[{"name":"amount","type":"uint128","internalType":"uint128"},{"name":"unlockAt","type":"uint64","internalType":"uint64"},{"name":"withdrawn","type":"bool","internalType":"bool"}]}],"stateMutability":"view"},{"type":"function","name":"getPositions","inputs":[{"name":"owner_","type":"address","internalType":"address"}],"outputs":[{"name":"","type":"tuple[]","internalType":"struct FixedVault.Position[]","components":[{"name":"amount","type":"uint128","internalType":"uint128"},{"name":"unlockAt","type":"uint64","internalType":"uint64"},{"name":"withdrawn","type":"bool","internalType":"bool"}]}],"stateMutability":"view"},{"type":"function","name":"positionCount","inputs":[{"name":"owner_","type":"address","internalType":"address"}],"outputs":[{"name":"","type":"uint256","internalType":"uint256"}],"stateMutability":"view"},{"type":"function","name":"totalLocked","inputs":[],"outputs":[{"name":"","type":"uint256","internalType":"uint256"}],"stateMutability":"view"},{"type":"function","name":"withdraw","inputs":[{"name":"positionId","type":"uint256","internalType":"uint256"}],"outputs":[],"stateMutability":"nonpayable"},{"type":"event","name":"PositionClosed","inputs":[{"name":"owner","type":"address","indexed":true,"internalType":"address"},{"name":"positionId","type":"uint256","indexed":true,"internalType":"uint256"},{"name":"amount","type":"uint256","indexed":false,"internalType":"uint256"}],"anonymous":false},{"type":"event","name":"PositionOpened","inputs":[{"name":"owner","type":"address","indexed":true,"internalType":"address"},{"name":"positionId","type":"uint256","indexed":true,"internalType":"uint256"},{"name":"amount","type":"uint256","indexed":false,"internalType":"uint256"},{"name":"unlockAt","type":"uint64","indexed":false,"internalType":"uint64"}],"anonymous":false},{"type":"error","name":"AlreadyWithdrawn","inputs":[{"name":"positionId","type":"uint256","internalType":"uint256"}]},{"type":"error","name":"AmountTooLarge","inputs":[{"name":"amount","type":"uint256","internalType":"uint256"}]},{"type":"error","name":"InvalidLockDuration","inputs":[{"name":"lockSeconds","type":"uint256","internalType":"uint256"}]},{"type":"error","name":"NotYetUnlocked","inputs":[{"name":"unlockAt","type":"uint64","internalType":"uint64"}]},{"type":"error","name":"PositionNotFound","inputs":[{"name":"positionId","type":"uint256","internalType":"uint256"}]},{"type":"error","name":"ReentrancyGuardReentrantCall","inputs":[]},{"type":"error","name":"SafeERC20FailedOperation","inputs":[{"name":"token","type":"address","internalType":"address"}]},{"type":"error","name":"ZeroAmount","inputs":[]}],"bytecode":{"object":"0x60a0604052348015600e575f80fd5b50604051610e8b380380610e8b833981016040819052602b91605f565b60017f9b779b17422d0df92223018b32b4d1fa46e071723d6817e2486d003becc55f00556001600160a01b0316608052608a565b5f60208284031215606e575f80fd5b81516001600160a01b03811681146083575f80fd5b9392505050565b608051610dd56100b65f395f818160f40152818161039b0152818161066201526108d20152610dd55ff3fe608060405234801561000f575f80fd5b50600436106100b9575f3560e01c806342fd3880116100725780637c6e5db7116100585780637c6e5db7146101b8578063e2bbb158146101c2578063e37c3a55146101d5575f80fd5b806342fd38801461017b57806356891412146101b0575f80fd5b806338d52e0f116100a257806338d52e0f146100ef5780633adbb5af1461013b5780633eeb530e1461015b575f80fd5b806329cd7939146100bd5780632e1a7d4d146100da575b5f80fd5b6100c7624f1a0081565b6040519081526020015b60405180910390f35b6100ed6100e8366004610be7565b6101df565b005b6101167f000000000000000000000000000000000000000000000000000000000000000081565b60405173ffffffffffffffffffffffffffffffffffffffff90911681526020016100d1565b61014e610149366004610c26565b610428565b6040516100d19190610c4e565b61016e610169366004610c8d565b61055b565b6040516100d19190610cad565b6100c7610189366004610c8d565b73ffffffffffffffffffffffffffffffffffffffff165f9081526020819052604090205490565b6100c7610632565b6100c762278d0081565b6100c76101d0366004610d2c565b6106e5565b6100c76276a70081565b6101e761097f565b335f90815260208190526040902080548210610237576040517ff7154807000000000000000000000000000000000000000000000000000000008152600481018390526024015b60405180910390fd5b5f81838154811061024a5761024a610d4c565b5f91825260209091200180549091507801000000000000000000000000000000000000000000000000900460ff16156102b2576040517f54225c2b0000000000000000000000000000000000000000000000000000000081526004810184905260240161022e565b8054700100000000000000000000000000000000900467ffffffffffffffff1642101561032d5780546040517fa47dd41d00000000000000000000000000000000000000000000000000000000815270010000000000000000000000000000000090910467ffffffffffffffff16600482015260240161022e565b80547fffffffffffffff00ffffffffffffffffffffffffffffffffffffffffffffffff811678010000000000000000000000000000000000000000000000001782556fffffffffffffffffffffffffffffffff166103c273ffffffffffffffffffffffffffffffffffffffff7f00000000000000000000000000000000000000000000000000000000000000001633836109ad565b604051818152849033907fc8469f8998427d0814b7efed804617bd8c43dfdfb3c6780d28a03ecf361fb6989060200160405180910390a350505061042560017f9b779b17422d0df92223018b32b4d1fa46e071723d6817e2486d003becc55f0055565b50565b604080516060810182525f808252602080830182905282840182905273ffffffffffffffffffffffffffffffffffffffff86168252819052919091205482106104a0576040517ff71548070000000000000000000000000000000000000000000000000000000081526004810183905260240161022e565b73ffffffffffffffffffffffffffffffffffffffff83165f9081526020819052604090208054839081106104d6576104d6610d4c565b5f9182526020918290206040805160608101825291909201546fffffffffffffffffffffffffffffffff8116825267ffffffffffffffff7001000000000000000000000000000000008204169382019390935260ff78010000000000000000000000000000000000000000000000009093049290921615159082015290505b92915050565b73ffffffffffffffffffffffffffffffffffffffff81165f90815260208181526040808320805482518185028101850190935280835260609492939192909184015b82821015610627575f84815260209081902060408051606081018252918501546fffffffffffffffffffffffffffffffff81168352700100000000000000000000000000000000810467ffffffffffffffff16838501527801000000000000000000000000000000000000000000000000900460ff1615159082015282526001909201910161059d565b505050509050919050565b6040517f70a082310000000000000000000000000000000000000000000000000000000081523060048201525f907f000000000000000000000000000000000000000000000000000000000000000073ffffffffffffffffffffffffffffffffffffffff16906370a0823190602401602060405180830381865afa1580156106bc573d5f803e3d5ffd5b505050506040513d601f19601f820116820180604052508101906106e09190610d79565b905090565b5f6106ee61097f565b825f03610727576040517f1f2a200500000000000000000000000000000000000000000000000000000000815260040160405180910390fd5b6fffffffffffffffffffffffffffffffff831115610774576040517f08083b2a0000000000000000000000000000000000000000000000000000000081526004810184905260240161022e565b62278d00821415801561078a5750624f1a008214155b801561079957506276a7008214155b156107d3576040517f46b60f8b0000000000000000000000000000000000000000000000000000000081526004810183905260240161022e565b5f6107de8342610d90565b335f81815260208181526040808320805482516060810184526fffffffffffffffffffffffffffffffff808d16825267ffffffffffffffff808a1683880190815295830188815260018501865594885295909620905190820180549451935115157801000000000000000000000000000000000000000000000000027fffffffffffffff00ffffffffffffffffffffffffffffffffffffffffffffffff94909616700100000000000000000000000000000000027fffffffffffffffff0000000000000000000000000000000000000000000000009095169190961617929092171691909117909155935090915061090f907f000000000000000000000000000000000000000000000000000000000000000073ffffffffffffffffffffffffffffffffffffffff16903087610a0d565b6040805185815267ffffffffffffffff83166020820152839133917f9335515dd66e08572fe32e31496124a9700ab8177e2fd28f306ea6cc89361c47910160405180910390a35061055560017f9b779b17422d0df92223018b32b4d1fa46e071723d6817e2486d003becc55f0055565b610987610a6f565b60027f9b779b17422d0df92223018b32b4d1fa46e071723d6817e2486d003becc55f0055565b6109ba8383836001610acc565b610a08576040517f5274afe700000000000000000000000000000000000000000000000000000000815273ffffffffffffffffffffffffffffffffffffffff8416600482015260240161022e565b505050565b610a1b848484846001610b54565b610a69576040517f5274afe700000000000000000000000000000000000000000000000000000000815273ffffffffffffffffffffffffffffffffffffffff8516600482015260240161022e565b50505050565b7f9b779b17422d0df92223018b32b4d1fa46e071723d6817e2486d003becc55f0054600203610aca576040517f3ee5aeb500000000000000000000000000000000000000000000000000000000815260040160405180910390fd5b565b6040517fa9059cbb000000000000000000000000000000000000000000000000000000005f81815273ffffffffffffffffffffffffffffffffffffffff8616600452602485905291602083604481808b5af1925060015f51148316610b48578383151615610b3c573d5f823e3d81fd5b5f873b113d1516831692505b60405250949350505050565b6040517f23b872dd000000000000000000000000000000000000000000000000000000005f81815273ffffffffffffffffffffffffffffffffffffffff8781166004528616602452604485905291602083606481808c5af1925060015f51148316610bd6578383151615610bca573d5f823e3d81fd5b5f883b113d1516831692505b604052505f60605295945050505050565b5f60208284031215610bf7575f80fd5b5035919050565b803573ffffffffffffffffffffffffffffffffffffffff81168114610c21575f80fd5b919050565b5f8060408385031215610c37575f80fd5b610c4083610bfe565b946020939093013593505050565b81516fffffffffffffffffffffffffffffffff16815260208083015167ffffffffffffffff169082015260408083015115159082015260608101610555565b5f60208284031215610c9d575f80fd5b610ca682610bfe565b9392505050565b602080825282518282018190525f918401906040840190835b81811015610d2157610d0b83855180516fffffffffffffffffffffffffffffffff16825260208082015167ffffffffffffffff16908301526040908101511515910152565b6020939093019260609290920191600101610cc6565b509095945050505050565b5f8060408385031215610d3d575f80fd5b50508035926020909101359150565b7f4e487b71000000000000000000000000000000000000000000000000000000005f52603260045260245ffd5b5f60208284031215610d89575f80fd5b5051919050565b80820180821115610555577f4e487b71000000000000000000000000000000000000000000000000000000005f52601160045260245ffdfea164736f6c634300081a000a","linkReferences":{}},"methodIdentifiers":{"LOCK_30_DAYS()":"7c6e5db7","LOCK_60_DAYS()":"29cd7939","LOCK_90_DAYS()":"e37c3a55","asset()":"38d52e0f","deposit(uint256,uint256)":"e2bbb158","getPosition(address,uint256)":"3adbb5af","getPositions(address)":"3eeb530e","positionCount(address)":"42fd3880","totalLocked()":"56891412","withdraw(uint256)":"2e1a7d4d"},"id":41}