{"abi":[{"type":"constructor","inputs":[{"name":"asset_","type":"address","internalType":"contract IERC20"},{"name":"name_","type":"string","internalType":"string"},{"name":"symbol_","type":"string","internalType":"string"}],"stateMutability":"nonpayable"},{"type":"function","name":"allowance","inputs":[{"name":"owner","type":"address","internalType":"address"},{"name":"spender","type":"address","internalType":"address"}],"outputs":[{"name":"","type":"uint256","internalType":"uint256"}],"stateMutability":"view"},{"type":"function","name":"approve","inputs":[{"name":"spender","type":"address","internalType":"address"},{"name":"value","type":"uint256","internalType":"uint256"}],"outputs":[{"name":"","type":"bool","internalType":"bool"}],"stateMutability":"nonpayable"},{"type":"function","name":"asset","inputs":[],"outputs":[{"name":"","type":"address","internalType":"address"}],"stateMutability":"view"},{"type":"function","name":"balanceOf","inputs":[{"name":"account","type":"address","internalType":"address"}],"outputs":[{"name":"","type":"uint256","internalType":"uint256"}],"stateMutability":"view"},{"type":"function","name":"convertToAssets","inputs":[{"name":"shares","type":"uint256","internalType":"uint256"}],"outputs":[{"name":"","type":"uint256","internalType":"uint256"}],"stateMutability":"view"},{"type":"function","name":"convertToShares","inputs":[{"name":"assets","type":"uint256","internalType":"uint256"}],"outputs":[{"name":"","type":"uint256","internalType":"uint256"}],"stateMutability":"view"},{"type":"function","name":"decimals","inputs":[],"outputs":[{"name":"","type":"uint8","internalType":"uint8"}],"stateMutability":"view"},{"type":"function","name":"deposit","inputs":[{"name":"assets","type":"uint256","internalType":"uint256"},{"name":"receiver","type":"address","internalType":"address"}],"outputs":[{"name":"","type":"uint256","internalType":"uint256"}],"stateMutability":"nonpayable"},{"type":"function","name":"maxDeposit","inputs":[{"name":"","type":"address","internalType":"address"}],"outputs":[{"name":"","type":"uint256","internalType":"uint256"}],"stateMutability":"view"},{"type":"function","name":"maxMint","inputs":[{"name":"","type":"address","internalType":"address"}],"outputs":[{"name":"","type":"uint256","internalType":"uint256"}],"stateMutability":"view"},{"type":"function","name":"maxRedeem","inputs":[{"name":"owner","type":"address","internalType":"address"}],"outputs":[{"name":"","type":"uint256","internalType":"uint256"}],"stateMutability":"view"},{"type":"function","name":"maxWithdraw","inputs":[{"name":"owner","type":"address","internalType":"address"}],"outputs":[{"name":"","type":"uint256","internalType":"uint256"}],"stateMutability":"view"},{"type":"function","name":"mint","inputs":[{"name":"shares","type":"uint256","internalType":"uint256"},{"name":"receiver","type":"address","internalType":"address"}],"outputs":[{"name":"","type":"uint256","internalType":"uint256"}],"stateMutability":"nonpayable"},{"type":"function","name":"name","inputs":[],"outputs":[{"name":"","type":"string","internalType":"string"}],"stateMutability":"view"},{"type":"function","name":"previewDeposit","inputs":[{"name":"assets","type":"uint256","internalType":"uint256"}],"outputs":[{"name":"","type":"uint256","internalType":"uint256"}],"stateMutability":"view"},{"type":"function","name":"previewMint","inputs":[{"name":"shares","type":"uint256","internalType":"uint256"}],"outputs":[{"name":"","type":"uint256","internalType":"uint256"}],"stateMutability":"view"},{"type":"function","name":"previewRedeem","inputs":[{"name":"shares","type":"uint256","internalType":"uint256"}],"outputs":[{"name":"","type":"uint256","internalType":"uint256"}],"stateMutability":"view"},{"type":"function","name":"previewWithdraw","inputs":[{"name":"assets","type":"uint256","internalType":"uint256"}],"outputs":[{"name":"","type":"uint256","internalType":"uint256"}],"stateMutability":"view"},{"type":"function","name":"redeem","inputs":[{"name":"shares","type":"uint256","internalType":"uint256"},{"name":"receiver","type":"address","internalType":"address"},{"name":"owner","type":"address","internalType":"address"}],"outputs":[{"name":"","type":"uint256","internalType":"uint256"}],"stateMutability":"nonpayable"},{"type":"function","name":"symbol","inputs":[],"outputs":[{"name":"","type":"string","internalType":"string"}],"stateMutability":"view"},{"type":"function","name":"totalAssets","inputs":[],"outputs":[{"name":"","type":"uint256","internalType":"uint256"}],"stateMutability":"view"},{"type":"function","name":"totalSupply","inputs":[],"outputs":[{"name":"","type":"uint256","internalType":"uint256"}],"stateMutability":"view"},{"type":"function","name":"transfer","inputs":[{"name":"to","type":"address","internalType":"address"},{"name":"value","type":"uint256","internalType":"uint256"}],"outputs":[{"name":"","type":"bool","internalType":"bool"}],"stateMutability":"nonpayable"},{"type":"function","name":"transferFrom","inputs":[{"name":"from","type":"address","internalType":"address"},{"name":"to","type":"address","internalType":"address"},{"name":"value","type":"uint256","internalType":"uint256"}],"outputs":[{"name":"","type":"bool","internalType":"bool"}],"stateMutability":"nonpayable"},{"type":"function","name":"withdraw","inputs":[{"name":"assets","type":"uint256","internalType":"uint256"},{"name":"receiver","type":"address","internalType":"address"},{"name":"owner","type":"address","internalType":"address"}],"outputs":[{"name":"","type":"uint256","internalType":"uint256"}],"stateMutability":"nonpayable"},{"type":"event","name":"Approval","inputs":[{"name":"owner","type":"address","indexed":true,"internalType":"address"},{"name":"spender","type":"address","indexed":true,"internalType":"address"},{"name":"value","type":"uint256","indexed":false,"internalType":"uint256"}],"anonymous":false},{"type":"event","name":"Deposit","inputs":[{"name":"sender","type":"address","indexed":true,"internalType":"address"},{"name":"owner","type":"address","indexed":true,"internalType":"address"},{"name":"assets","type":"uint256","indexed":false,"internalType":"uint256"},{"name":"shares","type":"uint256","indexed":false,"internalType":"uint256"}],"anonymous":false},{"type":"event","name":"Transfer","inputs":[{"name":"from","type":"address","indexed":true,"internalType":"address"},{"name":"to","type":"address","indexed":true,"internalType":"address"},{"name":"value","type":"uint256","indexed":false,"internalType":"uint256"}],"anonymous":false},{"type":"event","name":"Withdraw","inputs":[{"name":"sender","type":"address","indexed":true,"internalType":"address"},{"name":"receiver","type":"address","indexed":true,"internalType":"address"},{"name":"owner","type":"address","indexed":true,"internalType":"address"},{"name":"assets","type":"uint256","indexed":false,"internalType":"uint256"},{"name":"shares","type":"uint256","indexed":false,"internalType":"uint256"}],"anonymous":false},{"type":"error","name":"ERC20InsufficientAllowance","inputs":[{"name":"spender","type":"address","internalType":"address"},{"name":"allowance","type":"uint256","internalType":"uint256"},{"name":"needed","type":"uint256","internalType":"uint256"}]},{"type":"error","name":"ERC20InsufficientBalance","inputs":[{"name":"sender","type":"address","internalType":"address"},{"name":"balance","type":"uint256","internalType":"uint256"},{"name":"needed","type":"uint256","internalType":"uint256"}]},{"type":"error","name":"ERC20InvalidApprover","inputs":[{"name":"approver","type":"address","internalType":"address"}]},{"type":"error","name":"ERC20InvalidReceiver","inputs":[{"name":"receiver","type":"address","internalType":"address"}]},{"type":"error","name":"ERC20InvalidSender","inputs":[{"name":"sender","type":"address","internalType":"address"}]},{"type":"error","name":"ERC20InvalidSpender","inputs":[{"name":"spender","type":"address","internalType":"address"}]},{"type":"error","name":"ERC4626ExceededMaxDeposit","inputs":[{"name":"receiver","type":"address","internalType":"address"},{"name":"assets","type":"uint256","internalType":"uint256"},{"name":"max","type":"uint256","internalType":"uint256"}]},{"type":"error","name":"ERC4626ExceededMaxMint","inputs":[{"name":"receiver","type":"address","internalType":"address"},{"name":"shares","type":"uint256","internalType":"uint256"},{"name":"max","type":"uint256","internalType":"uint256"}]},{"type":"error","name":"ERC4626ExceededMaxRedeem","inputs":[{"name":"owner","type":"address","internalType":"address"},{"name":"shares","type":"uint256","internalType":"uint256"},{"name":"max","type":"uint256","internalType":"uint256"}]},{"type":"error","name":"ERC4626ExceededMaxWithdraw","inputs":[{"name":"owner","type":"address","internalType":"address"},{"name":"assets","type":"uint256","internalType":"uint256"},{"name":"max","type":"uint256","internalType":"uint256"}]},{"type":"error","name":"ReentrancyGuardReentrantCall","inputs":[]},{"type":"error","name":"SafeERC20FailedOperation","inputs":[{"name":"token","type":"address","internalType":"address"}]}],"bytecode":{"object":"0x60c060405234801561000f575f80fd5b50604051611a3c380380611a3c83398101604081905261002e91610180565b828282600361003d8382610286565b50600461004a8282610286565b5050505f8061005e836100b060201b60201c565b915091508161006e576012610070565b805b60ff1660a05250506001600160a01b0316608052505060017f9b779b17422d0df92223018b32b4d1fa46e071723d6817e2486d003becc55f005550610340565b63313ce56760e01b5f818152908190602082600481875afa5f51601f3d1190911661010082101695908602945092505050565b634e487b7160e01b5f52604160045260245ffd5b5f82601f830112610106575f80fd5b81516001600160401b0381111561011f5761011f6100e3565b604051601f8201601f19908116603f011681016001600160401b038111828210171561014d5761014d6100e3565b604052818152838201602001851015610164575f80fd5b8160208501602083015e5f918101602001919091529392505050565b5f805f60608486031215610192575f80fd5b83516001600160a01b03811681146101a8575f80fd5b60208501519093506001600160401b038111156101c3575f80fd5b6101cf868287016100f7565b604086015190935090506001600160401b038111156101ec575f80fd5b6101f8868287016100f7565b9150509250925092565b600181811c9082168061021657607f821691505b60208210810361023457634e487b7160e01b5f52602260045260245ffd5b50919050565b601f82111561028157805f5260205f20601f840160051c8101602085101561025f5750805b601f840160051c820191505b8181101561027e575f815560010161026b565b50505b505050565b81516001600160401b0381111561029f5761029f6100e3565b6102b3816102ad8454610202565b8461023a565b6020601f8211600181146102e5575f83156102ce5750848201515b5f19600385901b1c1916600184901b17845561027e565b5f84815260208120601f198516915b8281101561031457878501518255602094850194600190920191016102f4565b508482101561033157868401515f19600387901b60f8161c191681555b50505050600190811b01905550565b60805160a0516116c66103765f395f61057701525f8181610266015281816103d401528181610fc601526110aa01526116c65ff3fe608060405234801561000f575f80fd5b506004361061019a575f3560e01c806370a08231116100e8578063ba08765211610093578063ce96cb771161006e578063ce96cb7714610366578063d905777e14610379578063dd62ed3e1461038c578063ef8b30f714610353575f80fd5b8063ba08765214610340578063c63d75b614610290578063c6e6f59214610353575f80fd5b8063a9059cbb116100c3578063a9059cbb14610307578063b3d7f6b91461031a578063b460af941461032d575f80fd5b806370a08231146102b757806394bf804d146102ec57806395d89b41146102ff575f80fd5b806323b872dd11610148578063402d267d11610123578063402d267d146102905780634cdad506146101ce5780636e553f65146102a4575f80fd5b806323b872dd1461021f578063313ce5671461023257806338d52e0f1461024c575f80fd5b8063095ea7b311610178578063095ea7b3146101e15780630a28a4771461020457806318160ddd14610217575f80fd5b806301e1d1141461019e57806306fdde03146101b957806307a2d13a146101ce575b5f80fd5b6101a66103d1565b6040519081526020015b60405180910390f35b6101c1610486565b6040516101b091906112cf565b6101a66101dc366004611322565b610516565b6101f46101ef366004611361565b610527565b60405190151581526020016101b0565b6101a6610212366004611322565b61053e565b6002546101a6565b6101f461022d366004611389565b61054a565b61023a61056f565b60405160ff90911681526020016101b0565b60405173ffffffffffffffffffffffffffffffffffffffff7f00000000000000000000000000000000000000000000000000000000000000001681526020016101b0565b6101a661029e3660046113c3565b505f1990565b6101a66102b23660046113dc565b61059b565b6101a66102c53660046113c3565b73ffffffffffffffffffffffffffffffffffffffff165f9081526020819052604090205490565b6101a66102fa3660046113dc565b6105d9565b6101c16105ec565b6101f4610315366004611361565b6105fb565b6101a6610328366004611322565b610608565b6101a661033b366004611406565b610614565b6101a661034e366004611406565b610653565b6101a6610361366004611322565b610667565b6101a66103743660046113c3565b610672565b6101a66103873660046113c3565b61067b565b6101a661039a36600461143f565b73ffffffffffffffffffffffffffffffffffffffff9182165f90815260016020908152604080832093909416825291909152205490565b5f7f00000000000000000000000000000000000000000000000000000000000000006040517f70a0823100000000000000000000000000000000000000000000000000000000815230600482015273ffffffffffffffffffffffffffffffffffffffff91909116906370a0823190602401602060405180830381865afa15801561045d573d5f803e3d5ffd5b505050506040513d601f19601f820116820180604052508101906104819190611467565b905090565b6060600380546104959061147e565b80601f01602080910402602001604051908101604052809291908181526020018280546104c19061147e565b801561050c5780601f106104e35761010080835404028352916020019161050c565b820191905f5260205f20905b8154815290600101906020018083116104ef57829003601f168201915b5050505050905090565b5f610521825f6106a5565b92915050565b5f336105348185856106de565b5060019392505050565b5f6105218260016106f0565b5f33610557858285610720565b6105628585856107d4565b60019150505b9392505050565b5f61048160067f00000000000000000000000000000000000000000000000000000000000000006114fc565b5f6105a461087d565b6105ae83836108ab565b905061052160017f9b779b17422d0df92223018b32b4d1fa46e071723d6817e2486d003becc55f0055565b5f6105e261087d565b6105ae83836108ce565b6060600480546104959061147e565b5f336105348185856107d4565b5f6105218260016106a5565b5f61061d61087d565b6106288484846108e9565b905061056860017f9b779b17422d0df92223018b32b4d1fa46e071723d6817e2486d003becc55f0055565b5f61065c61087d565b610628848484610978565b5f610521825f6106f0565b5f6105216101dc835b73ffffffffffffffffffffffffffffffffffffffff81165f90815260208190526040812054610521565b5f6105686106b16103d1565b6106bc906001611515565b6106c86006600a61160b565b6002546106d59190611515565b859190856109fe565b6106eb8383836001610a40565b505050565b5f6105686107006006600a61160b565b60025461070d9190611515565b6107156103d1565b6106d5906001611515565b73ffffffffffffffffffffffffffffffffffffffff8381165f908152600160209081526040808320938616835292905220545f198110156107ce57818110156107c0576040517ffb8f41b200000000000000000000000000000000000000000000000000000000815273ffffffffffffffffffffffffffffffffffffffff8416600482015260248101829052604481018390526064015b60405180910390fd5b6107ce84848484035f610a40565b50505050565b73ffffffffffffffffffffffffffffffffffffffff8316610823576040517f96c6fd1e0000000000000000000000000000000000000000000000000000000081525f60048201526024016107b7565b73ffffffffffffffffffffffffffffffffffffffff8216610872576040517fec442f050000000000000000000000000000000000000000000000000000000081525f60048201526024016107b7565b6106eb838383610b85565b610885610d2c565b60027f9b779b17422d0df92223018b32b4d1fa46e071723d6817e2486d003becc55f0055565b5f5f195f6108b885610667565b90506108c633858784610d89565b949350505050565b5f5f195f6108db85610608565b90506108c633858388610d89565b5f806108f483610672565b905080851115610956576040517ffe9cceec00000000000000000000000000000000000000000000000000000000815273ffffffffffffffffffffffffffffffffffffffff8416600482015260248101869052604481018290526064016107b7565b5f6109608661053e565b905061096f3386868985610e05565b95945050505050565b5f806109838361067b565b9050808511156109e5576040517fb94abeec00000000000000000000000000000000000000000000000000000000815273ffffffffffffffffffffffffffffffffffffffff8416600482015260248101869052604481018290526064016107b7565b5f6109ef86610516565b905061096f338686848a610e05565b5f610a2b610a0b83610ee5565b8015610a2657505f8480610a2157610a21611619565b868809115b151590565b610a36868686610f11565b61096f9190611515565b73ffffffffffffffffffffffffffffffffffffffff8416610a8f576040517fe602df050000000000000000000000000000000000000000000000000000000081525f60048201526024016107b7565b73ffffffffffffffffffffffffffffffffffffffff8316610ade576040517f94280d620000000000000000000000000000000000000000000000000000000081525f60048201526024016107b7565b73ffffffffffffffffffffffffffffffffffffffff8085165f90815260016020908152604080832093871683529290522082905580156107ce578273ffffffffffffffffffffffffffffffffffffffff168473ffffffffffffffffffffffffffffffffffffffff167f8c5be1e5ebec7d5bd14f71427d1e84f3dd0314c0f7b2291e5b200ac8c7c3b92584604051610b7791815260200190565b60405180910390a350505050565b73ffffffffffffffffffffffffffffffffffffffff8316610bbc578060025f828254610bb19190611515565b90915550610c6c9050565b73ffffffffffffffffffffffffffffffffffffffff83165f9081526020819052604090205481811015610c41576040517fe450d38c00000000000000000000000000000000000000000000000000000000815273ffffffffffffffffffffffffffffffffffffffff8516600482015260248101829052604481018390526064016107b7565b73ffffffffffffffffffffffffffffffffffffffff84165f9081526020819052604090209082900390555b73ffffffffffffffffffffffffffffffffffffffff8216610c9557600280548290039055610cc0565b73ffffffffffffffffffffffffffffffffffffffff82165f9081526020819052604090208054820190555b8173ffffffffffffffffffffffffffffffffffffffff168373ffffffffffffffffffffffffffffffffffffffff167fddf252ad1be2c89b69c2b068fc378daa952ba7f163c4a11628f55a4df523b3ef83604051610d1f91815260200190565b60405180910390a3505050565b7f9b779b17422d0df92223018b32b4d1fa46e071723d6817e2486d003becc55f0054600203610d87576040517f3ee5aeb500000000000000000000000000000000000000000000000000000000815260040160405180910390fd5b565b610d938483610fc1565b610d9d8382610ff1565b8273ffffffffffffffffffffffffffffffffffffffff168473ffffffffffffffffffffffffffffffffffffffff167fdcbc1c05240f31ff3ad067ef1ee35ce4997762752e3a095284754544f4c709d78484604051610b77929190918252602082015260400190565b8273ffffffffffffffffffffffffffffffffffffffff168573ffffffffffffffffffffffffffffffffffffffff1614610e4357610e43838683610720565b610e4d838261104b565b610e5784836110a5565b8273ffffffffffffffffffffffffffffffffffffffff168473ffffffffffffffffffffffffffffffffffffffff168673ffffffffffffffffffffffffffffffffffffffff167ffbde797d201c681b91056529119e0b02407c7bb96a4a2c75c01fc9667232c8db8585604051610ed6929190918252602082015260400190565b60405180910390a45050505050565b5f6002826003811115610efa57610efa611646565b610f049190611673565b60ff166001149050919050565b5f805f610f1e86866110d0565b91509150815f03610f4257838181610f3857610f38611619565b0492505050610568565b818411610f5957610f5960038515026011186110ec565b5f848688095f868103871696879004966002600389028118808a02820302808a02820302808a02820302808a02820302808a02820302808a02909103029181900381900460010185841190960395909502919093039390930492909217029150509392505050565b610fed7f00000000000000000000000000000000000000000000000000000000000000008330846110fd565b5050565b73ffffffffffffffffffffffffffffffffffffffff8216611040576040517fec442f050000000000000000000000000000000000000000000000000000000081525f60048201526024016107b7565b610fed5f8383610b85565b73ffffffffffffffffffffffffffffffffffffffff821661109a576040517f96c6fd1e0000000000000000000000000000000000000000000000000000000081525f60048201526024016107b7565b610fed825f83610b85565b610fed7f00000000000000000000000000000000000000000000000000000000000000008383611159565b5f805f1983850993909202808410938190039390930393915050565b634e487b715f52806020526024601cfd5b61110b8484848460016111b4565b6107ce576040517f5274afe700000000000000000000000000000000000000000000000000000000815273ffffffffffffffffffffffffffffffffffffffff851660048201526024016107b7565b6111668383836001611247565b6106eb576040517f5274afe700000000000000000000000000000000000000000000000000000000815273ffffffffffffffffffffffffffffffffffffffff841660048201526024016107b7565b6040517f23b872dd000000000000000000000000000000000000000000000000000000005f81815273ffffffffffffffffffffffffffffffffffffffff8781166004528616602452604485905291602083606481808c5af1925060015f5114831661123657838315161561122a573d5f823e3d81fd5b5f883b113d1516831692505b604052505f60605295945050505050565b6040517fa9059cbb000000000000000000000000000000000000000000000000000000005f81815273ffffffffffffffffffffffffffffffffffffffff8616600452602485905291602083604481808b5af1925060015f511483166112c35783831516156112b7573d5f823e3d81fd5b5f873b113d1516831692505b60405250949350505050565b602081525f82518060208401528060208501604085015e5f6040828501015260407fffffffffffffffffffffffffffffffffffffffffffffffffffffffffffffffe0601f83011684010191505092915050565b5f60208284031215611332575f80fd5b5035919050565b803573ffffffffffffffffffffffffffffffffffffffff8116811461135c575f80fd5b919050565b5f8060408385031215611372575f80fd5b61137b83611339565b946020939093013593505050565b5f805f6060848603121561139b575f80fd5b6113a484611339565b92506113b260208501611339565b929592945050506040919091013590565b5f602082840312156113d3575f80fd5b61056882611339565b5f80604083850312156113ed575f80fd5b823591506113fd60208401611339565b90509250929050565b5f805f60608486031215611418575f80fd5b8335925061142860208501611339565b915061143660408501611339565b90509250925092565b5f8060408385031215611450575f80fd5b61145983611339565b91506113fd60208401611339565b5f60208284031215611477575f80fd5b5051919050565b600181811c9082168061149257607f821691505b6020821081036114c9577f4e487b71000000000000000000000000000000000000000000000000000000005f52602260045260245ffd5b50919050565b7f4e487b71000000000000000000000000000000000000000000000000000000005f52601160045260245ffd5b60ff8181168382160190811115610521576105216114cf565b80820180821115610521576105216114cf565b6001815b600184111561156357808504811115611547576115476114cf565b600184161561155557908102905b60019390931c92800261152c565b935093915050565b5f8261157957506001610521565b8161158557505f610521565b816001811461159b57600281146115a5576115c1565b6001915050610521565b60ff8411156115b6576115b66114cf565b50506001821b610521565b5060208310610133831016604e8410600b84101617156115e4575081810a610521565b6115f05f198484611528565b805f1904821115611603576116036114cf565b029392505050565b5f61056860ff84168361156b565b7f4e487b71000000000000000000000000000000000000000000000000000000005f52601260045260245ffd5b7f4e487b71000000000000000000000000000000000000000000000000000000005f52602160045260245ffd5b5f60ff8316806116aa577f4e487b71000000000000000000000000000000000000000000000000000000005f52601260045260245ffd5b8060ff8416069150509291505056fea164736f6c634300081a000a","linkReferences":{}},"methodIdentifiers":{"allowance(address,address)":"dd62ed3e","approve(address,uint256)":"095ea7b3","asset()":"38d52e0f","balanceOf(address)":"70a08231","convertToAssets(uint256)":"07a2d13a","convertToShares(uint256)":"c6e6f592","decimals()":"313ce567","deposit(uint256,address)":"6e553f65","maxDeposit(address)":"402d267d","maxMint(address)":"c63d75b6","maxRedeem(address)":"d905777e","maxWithdraw(address)":"ce96cb77","mint(uint256,address)":"94bf804d","name()":"06fdde03","previewDeposit(uint256)":"ef8b30f7","previewMint(uint256)":"b3d7f6b9","previewRedeem(uint256)":"4cdad506","previewWithdraw(uint256)":"0a28a477","redeem(uint256,address,address)":"ba087652","symbol()":"95d89b41","totalAssets()":"01e1d114","totalSupply()":"18160ddd","transfer(address,uint256)":"a9059cbb","transferFrom(address,address,uint256)":"23b872dd","withdraw(uint256,address,address)":"b460af94"},"id":42}