{"abi":[{"type":"constructor","inputs":[{"name":"asset_","type":"address","internalType":"contract IERC20"}],"stateMutability":"nonpayable"},{"type":"function","name":"MAX_MEMO_BYTES","inputs":[],"outputs":[{"name":"","type":"uint256","internalType":"uint256"}],"stateMutability":"view"},{"type":"function","name":"asset","inputs":[],"outputs":[{"name":"","type":"address","internalType":"contract IERC20"}],"stateMutability":"view"},{"type":"function","name":"send","inputs":[{"name":"to","type":"address","internalType":"address"},{"name":"amount","type":"uint256","internalType":"uint256"},{"name":"memo","type":"string","internalType":"string"}],"outputs":[],"stateMutability":"nonpayable"},{"type":"event","name":"Sent","inputs":[{"name":"from","type":"address","indexed":true,"internalType":"address"},{"name":"to","type":"address","indexed":true,"internalType":"address"},{"name":"amount","type":"uint256","indexed":false,"internalType":"uint256"},{"name":"memo","type":"string","indexed":false,"internalType":"string"}],"anonymous":false},{"type":"error","name":"MemoTooLong","inputs":[{"name":"length","type":"uint256","internalType":"uint256"}]},{"type":"error","name":"ReentrancyGuardReentrantCall","inputs":[]},{"type":"error","name":"SafeERC20FailedOperation","inputs":[{"name":"token","type":"address","internalType":"address"}]},{"type":"error","name":"SelfTransfer","inputs":[]},{"type":"error","name":"ZeroAddress","inputs":[]},{"type":"error","name":"ZeroAmount","inputs":[]}],"bytecode":{"object":"0x60a0604052348015600e575f80fd5b506040516105da3803806105da833981016040819052602b91605f565b60017f9b779b17422d0df92223018b32b4d1fa46e071723d6817e2486d003becc55f00556001600160a01b0316608052608a565b5f60208284031215606e575f80fd5b81516001600160a01b03811681146083575f80fd5b9392505050565b6080516105326100a85f395f8181604801526101fb01526105325ff3fe608060405234801561000f575f80fd5b506004361061003f575f3560e01c806338d52e0f1461004357806388ba1c2014610094578063f49bb76b146100ab575b5f80fd5b61006a7f000000000000000000000000000000000000000000000000000000000000000081565b60405173ffffffffffffffffffffffffffffffffffffffff90911681526020015b60405180910390f35b61009d61010081565b60405190815260200161008b565b6100be6100b9366004610435565b6100c0565b005b6100c86102bb565b73ffffffffffffffffffffffffffffffffffffffff8416610115576040517fd92e233d00000000000000000000000000000000000000000000000000000000815260040160405180910390fd5b3373ffffffffffffffffffffffffffffffffffffffff851603610164576040517f4d9ecd9100000000000000000000000000000000000000000000000000000000815260040160405180910390fd5b825f0361019d576040517f1f2a200500000000000000000000000000000000000000000000000000000000815260040160405180910390fd5b6101008111156101e1576040517fb15ee66a000000000000000000000000000000000000000000000000000000008152600481018290526024015b60405180910390fd5b61022373ffffffffffffffffffffffffffffffffffffffff7f0000000000000000000000000000000000000000000000000000000000000000163386866102e9565b8373ffffffffffffffffffffffffffffffffffffffff163373ffffffffffffffffffffffffffffffffffffffff167f02605d54d67ccbe0064a8ce6c39465102dd02b85ad8709391c5953a27083964b858585604051610284939291906104d2565b60405180910390a36102b560017f9b779b17422d0df92223018b32b4d1fa46e071723d6817e2486d003becc55f0055565b50505050565b6102c3610345565b60027f9b779b17422d0df92223018b32b4d1fa46e071723d6817e2486d003becc55f0055565b6102f78484848460016103a2565b6102b5576040517f5274afe700000000000000000000000000000000000000000000000000000000815273ffffffffffffffffffffffffffffffffffffffff851660048201526024016101d8565b7f9b779b17422d0df92223018b32b4d1fa46e071723d6817e2486d003becc55f00546002036103a0576040517f3ee5aeb500000000000000000000000000000000000000000000000000000000815260040160405180910390fd5b565b6040517f23b872dd000000000000000000000000000000000000000000000000000000005f81815273ffffffffffffffffffffffffffffffffffffffff8781166004528616602452604485905291602083606481808c5af1925060015f51148316610424578383151615610418573d5f823e3d81fd5b5f883b113d1516831692505b604052505f60605295945050505050565b5f805f8060608587031215610448575f80fd5b843573ffffffffffffffffffffffffffffffffffffffff8116811461046b575f80fd5b935060208501359250604085013567ffffffffffffffff81111561048d575f80fd5b8501601f8101871361049d575f80fd5b803567ffffffffffffffff8111156104b3575f80fd5b8760208284010111156104c4575f80fd5b949793965060200194505050565b83815260406020820152816040820152818360608301375f818301606090810191909152601f9092017fffffffffffffffffffffffffffffffffffffffffffffffffffffffffffffffe01601019291505056fea164736f6c634300081a000a","linkReferences":{}},"methodIdentifiers":{"MAX_MEMO_BYTES()":"88ba1c20","asset()":"38d52e0f","send(address,uint256,string)":"f49bb76b"},"id":43}